:10076E0054494D453A00616D00706D000D0A0056FA
:10077E004F4C543A005600000700050005000700D4
:07078E000000000000000064
:0807BA00C291D2927F027E0081
:1007C200D3EF9400EE64809480400F7DFADDFE7DCD
:0A07D200F7DDFEEF1F70E91E80E660
:0107DC0022FA
:0708EA00D2B6D2B7C2B7225B
:0708F100C2B7D2B6D2B72254
:02071800AD072B
:10071A00E4FCC2B674807E00A804088006CEA2E774
:10072A0013CE13D8F8FFEDFBEF5B6003D38001C350
:08073A0092B7D2B60CBC08DA3C
:010742002294
:10081D00E4FFFEC2B600D2B630B70D7480A806084C
:0C082D008002C313D8FC42070EBE08E78F
:01083900229C
:10083A00A9051208EA12071812084AAF0112071886
:0C084A00C2B6D2B7D2B620B7FDC2B622AB
:0908E100C2B6D2B7D2B6C2B622EB
:10087200AE07AA0312083AAF0212071812084A1268
:0908820008F17F0A7E000207C2A2
:02085600AA07EF
:1008580012083A1208EAEA4401FF12071812084A75
:0908680012081D1208E11208F14A
:010871002264
:10062100E4FDFCC293C296D294D296C296D294D2E1
:1006310096C296D296C296A2009294D296C296A2E1
:10064100019294D296C296D296C296D2967B0BC252
:100651009630951574017E00A803088005C333CE3A
:1006610033CED8F94205EE4204D2961BC3EB648027
:10067100948050DBD293AE04AF05E41202A6E4FBF2
:10068100FA79A078401200FBE4FBFA7980784512F0
:02069100020461
:010693002244
:10088B007F011208D77F021208D77F0C1208D77F7F
:09089B00381208D77F800208D74B
:0A08D7008FA0C2901207BAC292224D
:1007DD007FD0120856AC07ECC4540F2430FF12071B
:0707ED00F4EC540F2430FF6F
:0A07F4008FA0D2901207BAC2922221
:100795008B0D8A0E890FAB0DAA0EA90F120360608F
:1007A50013050FE50F7002050E14F9120360FF1211
:0507B50007F480E222C0
:040535008E118F1282
:10053900E4FBE512451170057F300207F4C3E511AC
:100549006480948050107F2D1207F4C3E49512F54E
:1005590012E49511F511D3E5129400E51164809424
:10056900804029AE11AF127C007D0A120379ED2477
:1005790030FFAE030B74132EF8A607AE11AF127C31
:10058900007D0A1203798E118F1280CA1BC3EB6496
:10059900809480400C74132BF8E6FF1207F41B803B
:0105A900EC65
:0105AA00222E
:080694008F108E0F8D0E8C0DEE
:10069C001202DF8F828E831205357F2E1207F4AD86
:1006AC0082AC83E41202A6A804A905AA06AB07AF84
:1006BC0010AE0FAD0EAC0D120006E4FBFA79C87843
:0A06CC00421200FB1202DF020535A6
:1007FE007F401208D7E4FCEC25E02485F582E43432
:0E080E0007F583740193FF1207F40CBC08E990
:01081C0022B9
:0F08BC00759850758920758BFD758DFDD28E2234
:1008A400ECC4540F2430FF1208B4EC540F2430FF6E
:0808B4008F993099FDC29922D1
:060743007BFF7A07797AC2
:100749008B0D8A0E890FAB0DAA0EA90F12036060DB
:1007590013050FE50F7002050E14F9120360FF125D
:0507690008B480E2224B
:0405AB008E118F120C
:1005AF00E4FBE512451170057F300208B4C3E51175
:1005BF006480948050107F2D1208B4C3E49512F517
:1005CF0012E49511F511D3E5129400E511648094AE
:1005DF00804029AE11AF127C007D0A120379ED2401
:1005EF0030FFAE030B74132EF8A607AE11AF127CBB
:1005FF00007D0A1203798E118F1280CA1BC3EB6420
:10060F00809480400C74132BF8E6FF1208B41B8003
:01061F00ECEE
:0106200022B7
:0806D6008F108E0F8D0E8C0DAC
:1006DE001202DF8F828E831205AB7F2E1208B4AD0D
:1006EE0082AC83EC1202A6A804A905AA06AB07AF3A
:1006FE0010AE0FAD0EAC0D120006E4FBFA79C87801
:0A070E00421200FB1202DF0205ABED
:100412001208BC1207FE12088B7B55E4FD7FD01236
:1004220008727B597D017FD01208727B237D027F87
:0E043200D01208727FC91208D77F561207F445
:100440007F801208D77BFF7A07796E1207957D02AD
:100450007FD0120856AC078C087F8D1208D7EC703D
:100460000874122CFC7BFF8019ECD39412400874A2
:10047000EE2CFC7BFF80057BFFBC12067A077977A8
:1004800080047A0779741207957F851208D71207BE
:10049000E47F3A1207F47BFF7A07796E120749125C
:1004A00008A47F3A1208B47D011207DD7F3A1207D3
:1004B000F41208A47F3A1208B4E4FD1207DD120812
:1004C000A4E50870047BFF8018E508D3941240046B
:1004D0007BFF8007E5087BFFB412067A07797780F7
:1004E000047A0779741207491207437FC01208D7AC
:1004F0007BFF7A07797D120795C200C2011206219F
:100500008F0C8E0B8D0A8C091206947BFF7A07796B
:100510007D120749AF0CAE0BAD0AAC091206D67BB3
:10052000FF7A0779831207491207437FF47E01128D
:0205300007C200
:0305320002044080
:1000030002034BE86480F8E933E83360110460F0DD
:10001300ED33EC337009E8FCE9FDEAFEEBFF220463
:1000230060DED3EB9FEA9EE99DE8C2E78CF0C2F75E
:1000330095F0400CE8CCF8E9CDF9EACEFAEBCFFB2A
:1000430012031685D0F05804700320D5B3E804706A
:10005300075002B2D502035592D5EC0460F7E4CC05
:10006300C0E0C398F8603B94186008400DD0E0FBF3
:1000730002032DE4FBFAC9FC8028E830E406E4C956
:10008300FBE4CAFCE830E305E4C9CACBFCE8540747
:100093006010F8C3E913F9EA13FAEB13FBEC13FC52
:1000A300D8F130F52FC3E49CFCEF9BFFEE9AFEEDF5
:1000B30099FDD0E0FBEF4E4D4C701222DB0302039F
:1000C30052EC2CFCEF33FFEE33FEED33FDED30E766
:1000D300EB02032DEF2BFFEE3AFEED39FDD0E0FBF3
:1000E30050130BBB0003020355ED13FDEE13FEEF9C
:0800F30013FFEC13FC02032DC6
:1000FB00EC4D6011E8497017ED33EC3304600DE4FF
:10010B00FCFFFEFD22E933E8330470F802034B12C7
:10011B00031658046009E4CC2481500628500902C8
:10012B000355284003020352C0E0EB4A7044B980E8
:10013B0006D0E0FB020341EF4E701CBD8008EBFFC5
:10014B00EAFEE9FD80EBE98DF0A4FEE5F00201E4A7
:10015B00E9CDF9EAFEEBFFEF89F0A4FCE5F0CE89DF
:10016B00F0A42EFFE435F0CD89F0A42DFEE435F09C
:10017B008067EF4E7005BD80D780C3EF8BF0A4ACCA
:10018B00F0EE8BF0A42CFCE435F0F8EF8AF0A42C05
:10019B00E5F038FCE433CB8DF0A42CFCE5F03BF818
:1001AB00EE8AF0A42CFCE5F038F8E433CF89F0A408
:1001BB002CFCE5F038CF3400CE89F0A42FFFE5F00E
:1001CB003EFEE433C98DF0A42EFEE5F039CD8AF066
:1001DB00A42FFFE5F03EFEE43DFD33D0E0FB5007DE
:1001EB000BBB000F020355EC2CFCEF33FFEE33FE81
:0601FB00ED33FD02032DAF
:10020100020355EC5D046005E85904700302034BD9
:10021100120316580460F6EC4860F2EC7004FDFE1F
:10022100FF22C860DB2481C85009C39860025006D0
:100231000203529850CAF582E9294B4A7005AB82F4
:1002410002034175F0007C1A7880C3EF9BEE9AEDB2
:1002510099400DC3EF9BFFEE9AFEED99FDE842F048
:10026100DC23ACF0D0E0FFD0E0FED0E0FDAB82209B
:10027100E7101BEB60BAEC2CFCEF33FFEE33FEED25
:1002810033FD02032DE803F830E705C0F075F000F7
:10029100EF2FFFEE33FEED33FD40B830E7C280AA09
:1002A10075F020800E75F010800575F0087D007ED8
:1002B100007F003392D530D5031203AFEC334010E9
:1002C100EF33FFEE33FEED33FDEC33FCD5F0ED22E1
:0E02D100E5F0247EA2D513CC92E7CDCEFF221D
:1002DF00EDD2E7CD33EC3392D524814006E4FFFE17
:1002EF00FDFC22FCE4CFCECDCC24E0501174FF8076
:1002FF00EDC3CC13CCCD13CDCE13CECF13CF047013
:07030F00F030D5DE0203AF60
:10031600E9D2E7C933E833F892D5EDD2E7CD33EC2D
:0703260033FC5002B2D522A6
:10032D00EC30E7100FBF000C0EBE00080DBD000431
:10033D000BEB6014A2D5EB13FCED92E7FD2274FFDD
:10034D00FCFDFEFF22E480F8A2D574FF13FC7D8036
:03035D00E480EF4A
:030000000208CB28
:0C08CB00787FE4F6D8FD7581200204124D
:10036000BB010689828A83E0225002E722BBFE029B
:09037000E32289828A83E49322CE
:10037900C2D5EC30E709B2D5E4C39DFDE49CFCEE9F
:1003890030E715B2D5E4C39FFFE49EFE1203BDC357
:10039900E49DFDE49CFC80031203BD30D507C3E452
:0603A9009FFFE49EFE220E
:0E03AF00C3E49FFFE49EFEE49DFDE49CFC225F
:1003BD00BC000BBE0029EF8DF084FFADF022E4CC24
:1003CD00F875F008EF2FFFEE33FEEC33FCEE9DECED
:1003DD00984005FCEE9DFE0FD5F0E9E4CEFD22ED33
:1003ED00F8F5F0EE8420D21CFEADF075F008EF2F7D
:1003FD00FFED33FD4007985006D5F0F222C398FD6E
:05040D000FD5F0EA220A
:00000001FF
